{
  "contractName": "Metadata",
  "abi": [
    {
      "constant": true,
      "inputs": [
        {
          "name": "_tokenId",
          "type": "uint256"
        }
      ],
      "name": "tokenURI",
      "outputs": [
        {
          "name": "_infoUrl",
          "type": "string"
        }
      ],
      "payable": false,
      "stateMutability": "pure",
      "type": "function",
      "signature": "0xc87b56dd"
    },
    {
      "constant": true,
      "inputs": [
        {
          "name": "x",
          "type": "uint256"
        }
      ],
      "name": "toBytes",
      "outputs": [
        {
          "name": "b",
          "type": "bytes"
        }
      ],
      "payable": false,
      "stateMutability": "pure",
      "type": "function",
      "signature": "0x775a8f5e"
    }
  ],
  "bytecode": "0x608060405234801561001057600080fd5b50610550806100206000396000f3fe60806040526004361061004c576000357c0100000000000000000000000000000000000000000000000000000000900463ffffffff168063775a8f5e14610051578063c87b56dd14610105575b600080fd5b34801561005d57600080fd5b5061008a6004803603602081101561007457600080fd5b81019080803590602001909291905050506101b9565b6040518080602001828103825283818151815260200191508051906020019080838360005b838110156100ca5780820151818401526020810190506100af565b50505050905090810190601f1680156100f75780820380516001836020036101000a031916815260200191505b509250505060405180910390f35b34801561011157600080fd5b5061013e6004803603602081101561012857600080fd5b81019080803590602001909291905050506101fd565b6040518080602001828103825283818151815260200191508051906020019080838360005b8381101561017e578082015181840152602081019050610163565b50505050905090810190601f1680156101ab5780820380516001836020036101000a031916815260200191505b509250505060405180910390f35b606060206040519080825280601f01601f1916602001820160405280156101ef5781602001600182028038833980820191505090505b509050816020820152919050565b6060806040805190810160405280601c81526020017f68747470733a2f2f646f6d61696e2e636f6d2f6d657461646174612f000000008152509050606061024384610271565b90506102686102518261040f565b61025a8461040f565b61043d90919063ffffffff16565b92505050919050565b606060008214156102b9576040805190810160405280600181526020017f3000000000000000000000000000000000000000000000000000000000000000815250905061040a565b600082905060005b6000821415156102e7578080600101915050600a828115156102df57fe5b0491506102c1565b6060816040519080825280601f01601f19166020018201604052801561031c5781602001600182028038833980820191505090505b50905060006001830390505b600086141515610402576000600a8781151561034057fe5b06603001905061034f816101b9565b601f81518110151561035d57fe5b9060200101517f010000000000000000000000000000000000000000000000000000000000000090047f0100000000000000000000000000000000000000000000000000000000000000028383806001900394508151811015156103bd57fe5b9060200101907effffffffffffffffffffffffffffffffffffffffffffffffffffffffffffff1916908160001a905350600a878115156103f957fe5b04965050610328565b819450505050505b919050565b61041761050a565b600060208301905060408051908101604052808451815260200182815250915050919050565b60608082600001518460000151016040519080825280601f01601f19166020018201604052801561047d5781602001600182028038833980820191505090505b509050600060208201905061049b81866020015187600001516104bf565b6104b485600001518201856020015186600001516104bf565b819250505092915050565b5b6020811015156104e557815183526020830192506020820191506020810390506104c0565b60006001826020036101000a0390508019835116818551168181178652505050505050565b60408051908101604052806000815260200160008152509056fea165627a7a7230582009d981117aea610b2a673f627a6286a1a1b6e59b788ce12378646a23446baa5e0029",
  "source": "pragma solidity ^0.5.0;\n/**\n* Metadata contract is upgradeable and returns metadata about RimbleToken\n*/\n\nimport \"./helpers/strings.sol\";\n\ncontract Metadata {\n    using strings for *;\n\n    function tokenURI(uint _tokenId) public pure returns (string memory _infoUrl) {\n        string memory base = \"https://domain.com/metadata/\";\n        string memory id = uint2str(_tokenId);\n        return base.toSlice().concat(id.toSlice());\n    }\n\n    function uint2str(uint i) internal pure returns (string memory) {\n        if (i == 0) return \"0\";\n        uint j = i;\n        uint length;\n        while (j != 0) {\n            length++;\n            j /= 10;\n        }\n        bytes memory bstr = new bytes(length);\n        uint k = length - 1;\n        while (i != 0) {\n            uint _uint = 48 + i % 10;\n            bstr[k--] = toBytes(_uint)[31];\n            i /= 10;\n        }\n        return string(bstr);\n    }\n    \n    function toBytes(uint256 x) public pure returns (bytes memory b) {\n        b = new bytes(32);\n        assembly { mstore(add(b, 32), x) }\n    }\n\n}",
  "sourcePath": "/Users/work/development/consensys/rimble-devcon-2019/contracts/Metadata.sol",
  "compiler": {
    "name": "solc",
    "version": "0.5.0+commit.1d4f565a.Emscripten.clang"
  },
  "schemaVersion": "3.0.1",
  "updatedAt": "2019-08-26T16:07:20.435Z",
  "devdoc": {
    "methods": {}
  },
  "userdoc": {
    "methods": {}
  }
}